{
  "_format": "hh-sol-artifact-1",
  "contractName": "FileRegister",
  "sourceName": "contracts/Register.sol",
  "abi": [
    {
      "anonymous": false,
      "inputs": [
        {
          "indexed": false,
          "internalType": "string",
          "name": "_userID",
          "type": "string"
        },
        {
          "indexed": false,
          "internalType": "string",
          "name": "_fileName",
          "type": "string"
        },
        {
          "indexed": false,
          "internalType": "string",
          "name": "_fileHash",
          "type": "string"
        }
      ],
      "name": "FileAdded",
      "type": "event"
    },
    {
      "inputs": [
        {
          "internalType": "string",
          "name": "userID",
          "type": "string"
        },
        {
          "internalType": "string",
          "name": "_fileName",
          "type": "string"
        },
        {
          "internalType": "string",
          "name": "_fileHash",
          "type": "string"
        },
        {
          "internalType": "string",
          "name": "_fileLink",
          "type": "string"
        }
      ],
      "name": "addFile",
      "outputs": [],
      "stateMutability": "nonpayable",
      "type": "function"
    },
    {
      "inputs": [
        {
          "internalType": "string",
          "name": "userID",
          "type": "string"
        }
      ],
      "name": "returnFiles",
      "outputs": [
        {
          "components": [
            {
              "internalType": "string",
              "name": "fileName",
              "type": "string"
            },
            {
              "internalType": "string",
              "name": "fileHash",
              "type": "string"
            },
            {
              "internalType": "string",
              "name": "fileLink",
              "type": "string"
            }
          ],
          "internalType": "struct FileRegister.File[]",
          "name": "",
          "type": "tuple[]"
        }
      ],
      "stateMutability": "view",
      "type": "function"
    }
  ],
  "bytecode": "0x608060405234801561001057600080fd5b50610be3806100206000396000f3fe608060405234801561001057600080fd5b50600436106100365760003560e01c80633943a9c11461003b5780635f067db01461006b575b600080fd5b610055600480360381019061005091906104fb565b610087565b60405161006291906106e3565b60405180910390f35b61008560048036038101906100809190610705565b6102ba565b005b60606000826040516100999190610818565b9081526020016040518091039020805480602002602001604051908101604052809291908181526020016000905b828210156102af57838290600052602060002090600302016040518060600160405290816000820180546100fa9061085e565b80601f01602080910402602001604051908101604052809291908181526020018280546101269061085e565b80156101735780601f1061014857610100808354040283529160200191610173565b820191906000526020600020905b81548152906001019060200180831161015657829003601f168201915b5050505050815260200160018201805461018c9061085e565b80601f01602080910402602001604051908101604052809291908181526020018280546101b89061085e565b80156102055780601f106101da57610100808354040283529160200191610205565b820191906000526020600020905b8154815290600101906020018083116101e857829003601f168201915b5050505050815260200160028201805461021e9061085e565b80601f016020809104026020016040519081016040528092919081815260200182805461024a9061085e565b80156102975780601f1061026c57610100808354040283529160200191610297565b820191906000526020600020905b81548152906001019060200180831161027a57829003601f168201915b505050505081525050815260200190600101906100c7565b505050509050919050565b6000846040516102ca9190610818565b9081526020016040518091039020604051806060016040528085815260200184815260200183815250908060018154018082558091505060019003906000526020600020906003020160009091909190915060008201518160000190816103319190610a45565b5060208201518160010190816103479190610a45565b50604082015181600201908161035d9190610a45565b5050507fc361907d2272fe68c55bdf97a396ed5347a673cf49040e8d153c9de646bebb5184848460405161039393929190610b61565b60405180910390a150505050565b6000604051905090565b600080fd5b600080fd5b600080fd5b600080fd5b6000601f19601f8301169050919050565b7f4e487b7100000000000000000000000000000000000000000000000000000000600052604160045260246000fd5b610408826103bf565b810181811067ffffffffffffffff82111715610427576104266103d0565b5b80604052505050565b600061043a6103a1565b905061044682826103ff565b919050565b600067ffffffffffffffff821115610466576104656103d0565b5b61046f826103bf565b9050602081019050919050565b82818337600083830152505050565b600061049e6104998461044b565b610430565b9050828152602081018484840111156104ba576104b96103ba565b5b6104c584828561047c565b509392505050565b600082601f8301126104e2576104e16103b5565b5b81356104f284826020860161048b565b91505092915050565b600060208284031215610511576105106103ab565b5b600082013567ffffffffffffffff81111561052f5761052e6103b0565b5b61053b848285016104cd565b91505092915050565b600081519050919050565b600082825260208201905092915050565b6000819050602082019050919050565b600081519050919050565b600082825260208201905092915050565b60005b838110156105aa57808201518184015260208101905061058f565b60008484015250505050565b60006105c182610570565b6105cb818561057b565b93506105db81856020860161058c565b6105e4816103bf565b840191505092915050565b6000606083016000830151848203600086015261060c82826105b6565b9150506020830151848203602086015261062682826105b6565b9150506040830151848203604086015261064082826105b6565b9150508091505092915050565b600061065983836105ef565b905092915050565b6000602082019050919050565b600061067982610544565b610683818561054f565b93508360208202850161069585610560565b8060005b858110156106d157848403895281516106b2858261064d565b94506106bd83610661565b925060208a01995050600181019050610699565b50829750879550505050505092915050565b600060208201905081810360008301526106fd818461066e565b905092915050565b6000806000806080858703121561071f5761071e6103ab565b5b600085013567ffffffffffffffff81111561073d5761073c6103b0565b5b610749878288016104cd565b945050602085013567ffffffffffffffff81111561076a576107696103b0565b5b610776878288016104cd565b935050604085013567ffffffffffffffff811115610797576107966103b0565b5b6107a3878288016104cd565b925050606085013567ffffffffffffffff8111156107c4576107c36103b0565b5b6107d0878288016104cd565b91505092959194509250565b600081905092915050565b60006107f282610570565b6107fc81856107dc565b935061080c81856020860161058c565b80840191505092915050565b600061082482846107e7565b915081905092915050565b7f4e487b7100000000000000000000000000000000000000000000000000000000600052602260045260246000fd5b6000600282049050600182168061087657607f821691505b6020821081036108895761088861082f565b5b50919050565b60008190508160005260206000209050919050565b60006020601f8301049050919050565b600082821b905092915050565b6000600883026108f17fffffffffffffffffffffffffffffffffffffffffffffffffffffffffffffffff826108b4565b6108fb86836108b4565b95508019841693508086168417925050509392505050565b6000819050919050565b6000819050919050565b600061094261093d61093884610913565b61091d565b610913565b9050919050565b6000819050919050565b61095c83610927565b61097061096882610949565b8484546108c1565b825550505050565b600090565b610985610978565b610990818484610953565b505050565b5b818110156109b4576109a960008261097d565b600181019050610996565b5050565b601f8211156109f9576109ca8161088f565b6109d3846108a4565b810160208510156109e2578190505b6109f66109ee856108a4565b830182610995565b50505b505050565b600082821c905092915050565b6000610a1c600019846008026109fe565b1980831691505092915050565b6000610a358383610a0b565b9150826002028217905092915050565b610a4e82610570565b67ffffffffffffffff811115610a6757610a666103d0565b5b610a71825461085e565b610a7c8282856109b8565b600060209050601f831160018114610aaf5760008415610a9d578287015190505b610aa78582610a29565b865550610b0f565b601f198416610abd8661088f565b60005b82811015610ae557848901518255600182019150602085019450602081019050610ac0565b86831015610b025784890151610afe601f891682610a0b565b8355505b6001600288020188555050505b505050505050565b600082825260208201905092915050565b6000610b3382610570565b610b3d8185610b17565b9350610b4d81856020860161058c565b610b56816103bf565b840191505092915050565b60006060820190508181036000830152610b7b8186610b28565b90508181036020830152610b8f8185610b28565b90508181036040830152610ba38184610b28565b905094935050505056fea2646970667358221220b5b51915bda4875c1d217a225b1c59cb62072c06a9d325484453ed5911133f8064736f6c63430008120033",
  "linkReferences": {},
  "deployedLinkReferences": {}
}